:020000040800F2
:100000000050002075310008D9300008DB300008AE
:10001000DD300008DF300008E1300008000000009B
:10002000000000000000000000000000E3300008B5
:10003000E530000800000000E7300008E930000863
:10004000BD310008BD310008BD310008BD310008D8
:10005000BD310008BD310008BD310008BD310008C8
:10006000BD310008BD310008BD310008ED30000889
:10007000BD310008BD310008BD310008BD310008A8
:10008000BD310008BD310008F9300008BD3100085D
:10009000BD310008BD310008BD310008BD31000888
:1000A000BD310008BD310008BD310008BD31000878
:1000B00005310008BD310008BD310008BD31000820
:1000C000BD310008BD310008BD310008BD31000858
:1000D000BD310008BD310008BD310008BD31000848
:1000E00011310008BD310008BD31000800000000DA
:1000F0000000000000000000000000000000000000
:0C01000000000000000000005FF808F1A3
:1001100010B5054C237833B9044B13B10448AFF341
:1001200000800123237010BD780000200000000033
:10013000D036000808B5034B1BB103490348AFF3A1
:10014000008008BD000000007C000020D0360008C0
:1001500081F0004102E000BF83F0004330B54FEA78
:1001600041044FEA430594EA050F08BF90EA020FE5
:100170001FBF54EA000C55EA020C7FEA645C7FEA78
:10018000655C00F0E2804FEA5454D4EB5555B8BF9B
:100190006D420CDD2C4480EA020281EA030382EA0C
:1001A000000083EA010180EA020281EA0303362D9E
:1001B00088BF30BD11F0004F4FEA01314FF4801C71
:1001C0004CEA113102D0404261EB410113F0004F83
:1001D0004FEA03334CEA133302D0524263EB43033A
:1001E00094EA050F00F0A780A4F10104D5F1200ED8
:1001F0000DDB02FA0EFC22FA05F2801841F1000133
:1002000003FA0EF2801843FA05F359410EE0A5F106
:1002100020050EF1200E012A03FA0EFC28BF4CF037
:10022000020C43FA05F3C01851EBE37101F00045ED
:1002300007D54FF0000EDCF1000C7EEB00006EEBFA
:100240000101B1F5801F1BD3B1F5001F0CD3490884
:100250005FEA30004FEA3C0C04F101044FEA4452DB
:1002600012F5800F80F09A80BCF1004F08BF5FEA62
:10027000500C50F1000041EB045141EA050130BD42
:100280005FEA4C0C404141EB010111F4801FA4F1E5
:100290000104E9D191F0000F04BF01460020B1FA3A
:1002A00081F308BF2033A3F10B03B3F120020CDA72
:1002B0000C3208DD02F1140CC2F10C0201FA0CF050
:1002C00021FA02F10CE002F11402D8BFC2F1200CB5
:1002D00001FA02F120FA0CFCDCBF41EA0C0190406B
:1002E000E41AA2BF01EB0451294330BD6FEA0404B4
:1002F0001F3C1CDA0C340EDC04F11404C4F120029F
:1003000020FA04F001FA02F340EA030021FA04F3B0
:1003100045EA030130BDC4F10C04C4F1200220FA07
:1003200002F001FA04F340EA0300294630BD21FA45
:1003300004F0294630BD94F0000F83F4801306BF0B
:1003400081F480110134013D4EE77FEA645C18BFFF
:100350007FEA655C29D094EA050F08BF90EA020F96
:1003600005D054EA000C04BF1946104630BD91EA8E
:10037000030F1EBF0021002030BD5FEA545C05D191
:100380004000494128BF41F0004130BD14F58004D0
:100390003CBF01F5801130BD01F0004545F0FE4144
:1003A00041F470014FF0000030BD7FEA645C1ABF79
:1003B000194610467FEA655C1CBF0B46024650EAB0
:1003C000013406BF52EA033591EA030F41F40021DC
:1003D00030BD00BF90F0000F04BF0021704730B562
:1003E0004FF4806404F132044FF000054FF0000137
:1003F00050E700BF90F0000F04BF0021704730B5F8
:100400004FF4806404F1320410F0004548BF4042CC
:100410004FF000013EE700BF42004FEAE2014FEA21
:1004200031014FEA02701FBF12F07F4393F07F4FFC
:1004300081F06051704792F0000F14BF93F07F4F2E
:10044000704730B54FF4607401F0004521F0004171
:1004500020E700BF50EA010208BF704730B54FF0F7
:1004600000050AE050EA010208BF704730B511F0FC
:10047000004502D5404261EB41014FF4806404F134
:1004800032045FEA915C3FF4DCAE4FF003025FEAB6
:10049000DC0C18BF03325FEADC0C18BF033202EB3E
:1004A000DC02C2F1200300FA03FC20FA02F001FA98
:1004B00003FE40EA0E0021FA02F11444C1E600BF37
:1004C00070B54FF0FF0C4CF4E06C1CEA11541DBFEA
:1004D0001CEA135594EA0C0F95EA0C0F00F0DEF8B5
:1004E0002C4481EA030621EA4C5123EA4C5350EA9A
:1004F000013518BF52EA033541F4801143F48013EB
:1005000038D0A0FB02CE4FF00005E1FB02E506F07B
:100510000042E0FB03E54FF00006E1FB03569CF0D0
:10052000000F18BF4EF0010EA4F1FF04B6F5007FD6
:1005300064F5407404D25FEA4E0E6D4146EB060648
:1005400042EAC62141EA55514FEAC52040EA5E50D1
:100550004FEACE2EB4F1FD0C88BFBCF5E06F1ED87B
:10056000BEF1004F08BF5FEA500E50F1000041EBB2
:10057000045170BD06F0004646EA010140EA02005F
:1005800081EA0301B4EB5C04C2BFD4EB0C0541EA81
:10059000045170BD41F480114FF0000E013C00F396
:1005A000AB8014F1360FDEBF002001F0004170BDBA
:1005B000C4F10004203C35DA0C341BDC04F11404D3
:1005C000C4F1200500FA05F320FA04F001FA05F25F
:1005D00040EA020001F0004221F0004110EBD3702C
:1005E00021FA04F642EB06015EEA430E08BF20EA58
:1005F000D37070BDC4F10C04C4F1200500FA04F3FB
:1006000020FA05F001FA04F240EA020001F000418C
:1006100010EBD37041F100015EEA430E08BF20EAFF
:10062000D37070BDC4F1200500FA05F24EEA020E47
:1006300020FA04F301FA05F243EA020321FA04F076
:1006400001F0004121FA04F220EA020000EBD3702D
:100650005EEA430E08BF20EAD37070BD94F0000F2D
:100660000FD101F00046400041EB010111F4801F61
:1006700008BF013CF7D041EA060195F0000F18BF12
:10068000704703F00046520043EB030313F4801F4E
:1006900008BF013DF7D043EA0603704794EA0C0F08
:1006A0000CEA135518BF95EA0C0F0CD050EA41061E
:1006B00018BF52EA4306D1D181EA030101F000419B
:1006C0004FF0000070BD50EA410606BF10461946C3
:1006D00052EA430619D094EA0C0F02D150EA0136CF
:1006E00013D195EA0C0F05D152EA03361CBF104610
:1006F00019460AD181EA030101F0004141F0FE41AF
:1007000041F470014FF0000070BD41F0FE4141F432
:10071000780170BD70B54FF0FF0C4CF4E06C1CEA32
:1007200011541DBF1CEA135594EA0C0F95EA0C0FE7
:1007300000F0A7F8A4EB050481EA030E52EA0335A2
:100740004FEA013100F088804FEA03334FF08055C3
:1007500045EA131343EA12634FEA022245EA1115F0
:1007600045EA10654FEA00260EF000419D4208BFA1
:10077000964244F1FD0404F5407402D25B084FEA4E
:100780003202B61A65EB03055B084FEA32024FF4FA
:1007900080104FF4002CB6EB020E75EB030E22BF57
:1007A000B61A754640EA0C005B084FEA3202B6EB17
:1007B000020E75EB030E22BFB61A754640EA5C00C6
:1007C0005B084FEA3202B6EB020E75EB030E22BF56
:1007D000B61A754640EA9C005B084FEA3202B6EB57
:1007E000020E75EB030E22BFB61A754640EADC0016
:1007F00055EA060E18D04FEA051545EA16754FEA78
:1008000006164FEAC30343EA52734FEAC2025FEA95
:100810001C1CC0D111F4801F0BD141EA00014FF024
:1008200000004FF0004CB6E711F4801F04BF0143F5
:100830000020B4F1FD0C88BFBCF5E06F3FF6AFAE11
:10084000B5EB030C04BFB6EB020C5FEA500C50F1A1
:10085000000041EB045170BD0EF0004E4EEA113124
:1008600014EB5C04C2BFD4EB0C0541EA045170BD2B
:1008700041F480114FF0000E013C90E645EA060E6F
:100880008DE60CEA135594EA0C0F08BF95EA0C0F9D
:100890003FF43BAF94EA0C0F0AD150EA01347FF4E5
:1008A00034AF95EA0C0F7FF425AF104619462CE7BC
:1008B00095EA0C0F06D152EA03353FF4FDAE10461F
:1008C000194622E750EA410618BF52EA43067FF470
:1008D000C5AE50EA41047FF40DAF52EA43057FF400
:1008E000EBAE12E74FF0FF3C06E000BF4FF0010C0B
:1008F00002E000BF4FF0010C4DF804CD4FEA410C6F
:100900007FEA6C5C4FEA430C18BF7FEA6C5C1BD03B
:1009100001B050EA410C0CBF52EA430C91EA030FBC
:1009200002BF90EA020F0020704710F1000F91EA19
:10093000030F58BF994208BF90422CBFD8176FEAE7
:10094000E37040F0010070474FEA410C7FEA6C5CB5
:1009500002D150EA013C07D14FEA430C7FEA6C5CBC
:10096000D6D152EA033CD3D05DF8040B704700BFE8
:100970008446104662468C461946634600E000BF36
:1009800001B5FFF7B7FF002848BF10F1000F01BD08
:100990004DF808EDFFF7F4FF0CBF012000205DF8D3
:1009A00008FB00BF4DF808EDFFF7EAFF34BF012058
:1009B00000205DF808FB00BF4DF808EDFFF7E0FFF1
:1009C00094BF012000205DF808FB00BF4DF808ED42
:1009D000FFF7CEFF94BF012000205DF808FB00BFA9
:1009E0004DF808EDFFF7C4FF34BF012000205DF88B
:1009F00008FB00BF4FEA410C7FEA6C5C02D150EA71
:100A0000013C0AD14FEA430C7FEA6C5C02D152EA06
:100A1000033C02D14FF0000070474FF001007047D7
:100A20004FEA410212F5001215D211D56FF4787316
:100A3000B3EB625212D94FEAC12343F0004343EAB9
:100A4000505311F0004F23FA02F018BF4042704794
:100A50004FF00000704750EA013005D111F000401E
:100A600008BF6FF0004070474FF00000704700BFB4
:100A70004FEA4102B2F1E04324BFB3F5001CDCF1C0
:100A8000FE5C0DD901F0004C4FEAC0024CEA5070F8
:100A9000B2F1004F40EB830008BF20F00100704727
:100AA00011F0804F21D113F13872BCBF01F000402A
:100AB000704741F480114FEA5252C2F11802C2F15C
:100AC000200C10FA0CF320FA02F018BF40F00100DD
:100AD0004FEAC1234FEAD32303FA0CFC40EA0C008F
:100AE00023FA02F34FEA4303CCE77FEA625307D1CC
:100AF00050EA01331EBF4FF0FE4040F44000704703
:100B000001F0004040F0FE4040F40000704700BF9C
:100B100080F0004002E000BF81F0004142001FBFB2
:100B20005FEA410392EA030F7FEA226C7FEA236CBB
:100B30006AD04FEA1262D2EB1363C1BFD2184140B0
:100B400048404140B8BF5B42192B88BF704710F046
:100B5000004F40F4000020F07F4018BF404211F0E9
:100B6000004F41F4000121F07F4118BF494292EA51
:100B7000030F3FD0A2F1010241FA03FC10EB0C007D
:100B8000C3F1200301FA03F100F0004302D549420A
:100B900060EB4000B0F5000F13D3B0F1807F06D3B7
:100BA00040084FEA310102F10102FE2A51D2B1F1AF
:100BB000004F40EBC25008BF20F0010040EA0300A4
:100BC0007047490040EB000010F4000FA2F1010251
:100BD000EDD1B0FA80FCACF1080CB2EB0C0200FADB
:100BE0000CF0AABF00EBC25052421843BCBFD04029
:100BF0001843704792F0000F81F4000106BF80F4A3
:100C000000000132013BB5E74FEA41037FEA226C65
:100C100018BF7FEA236C21D092EA030F04D092F030
:100C2000000F08BF0846704790EA010F1CBF002064
:100C3000704712F07F4F04D1400028BF40F00040C1
:100C4000704712F100723CBF00F50000704700F0E1
:100C5000004343F0FE4040F4000070477FEA226208
:100C600016BF08467FEA23630146420206BF5FEAD9
:100C7000412390EA010F40F4800070474FF00003D9
:100C800004E000BF10F0004348BF40425FEA000CA0
:100C900008BF704743F0964301464FF000001CE048
:100CA00050EA010208BF70474FF000030AE000BF9E
:100CB00050EA010208BF704711F0004302D54042DC
:100CC00061EB41015FEA010C02BF8446014600204E
:100CD00043F0B64308BFA3F18053A3F50003BCFA69
:100CE0008CF2083AA3EBC25310DB01FA02FC634416
:100CF00000FA02FCC2F12002BCF1004F20FA02F21D
:100D000043EB020008BF20F00100704702F120020F
:100D100001FA02FCC2F1200250EA4C0021FA02F270
:100D200043EB020008BF20EADC7070474FF0FF0C75
:100D30001CEAD0521EBF1CEAD15392EA0C0F93EA70
:100D40000C0F6FD01A4480EA010C400218BF5FEA12
:100D500041211ED04FF0006343EA501043EA511185
:100D6000A0FB01310CF00040B1F5000F3EBF49007F
:100D700041EAD3715B0040EA010062F17F02FD2A83
:100D80001DD8B3F1004F40EBC25008BF20F0010066
:100D9000704790F0000F0CF0004C08BF49024CEA7D
:100DA000502040EA51207F3AC2BFD2F1FF0340EA0F
:100DB000C250704740F400004FF00003013A5DDC80
:100DC00012F1190FDCBF00F000407047C2F10002C1
:100DD000410021FA02F1C2F1200200FA02FC5FEAAE
:100DE000310040F1000053EA4C0308BF20EADC70F8
:100DF000704792F0000F00F0004C02BF400010F46A
:100E0000000F013AF9D040EA0C0093F0000F01F016
:100E1000004C02BF490011F4000F013BF9D041EA38
:100E20000C018FE70CEAD15392EA0C0F18BF93EA3A
:100E30000C0F0AD030F0004C18BF31F0004CD8D164
:100E400080EA010000F00040704790F0000F17BFEB
:100E500090F0004F084691F0000F91F0004F14D031
:100E600092EA0C0F01D142020FD193EA0C0F03D189
:100E70004B0218BF084608D180EA010000F000408C
:100E800040F0FE4040F40000704740F0FE4040F467
:100E9000400070474FF0FF0C1CEAD0521EBF1CEA06
:100EA000D15392EA0C0F93EA0C0F69D0A2EB030224
:100EB00080EA010C49024FEA402037D04FF08053BE
:100EC00043EA111143EA10130CF000408B4238BF83
:100ED0005B0042F17D024FF4000C8B4224BF5B1A91
:100EE00040EA0C00B3EB510F24BFA3EB510340EADF
:100EF0005C00B3EB910F24BFA3EB910340EA9C008D
:100F0000B3EBD10F24BFA3EBD10340EADC001B01FC
:100F100018BF5FEA1C1CE0D1FD2A3FF650AF8B42A0
:100F200040EBC25008BF20F0010070470CF0004CAD
:100F30004CEA50207F32C2BFD2F1FF0340EAC250D8
:100F4000704740F400004FF00003013A37E792F099
:100F5000000F00F0004C02BF400010F4000F013AF7
:100F6000F9D040EA0C0093F0000F01F0004C02BFF2
:100F7000490011F4000F013BF9D041EA0C0195E75B
:100F80000CEAD15392EA0C0F08D142027FF47DAFF4
:100F900093EA0C0F7FF470AF084676E793EA0C0FE4
:100FA00004D14B023FF44CAF08466EE730F0004CE2
:100FB00018BF31F0004CCAD130F000427FF45CAF72
:100FC00031F000437FF43CAF5FE700BF4FEA4002DF
:100FD000B2F1FE4F0FD34FF09E03B3EB12620DD967
:100FE0004FEA002343F0004310F0004F23FA02F0D1
:100FF00018BF404270474FF00000704712F1610F78
:1010000001D1420205D110F0004008BF6FF000404E
:1010100070474FF00000704738B50E4B0546187802
:101020004FF47A73B3FBF0F30B4A1068B0FBF3F0A4
:1010300000F02EFB044658B90F2D09D80246294668
:101040004FF0FF3000F0E4FA044B20461D6038BD3D
:10105000012038BD000000200C000020040000200A
:10106000074A08B51368032043F01003136000F02B
:10107000BDFA0020FFF7D0FF01F02AFF002008BDD5
:1010800000200240034A044B11681B780B44136094
:10109000704700BF1001002000000020014B1868BD
:1010A000704700BF100100207047436A10B59A6A6C
:1010B00012F0500F1BD19A6A42F400729A621A68B9
:1010C000926802F46022B2F5602F0CD1DA6852B94E
:1010D0009A6A22F480729A629A6AD2045EBF9A6A0D
:1010E00042F001029A621846FFF7DEFF10BD1B6A4C
:1010F000BDE810401B6B1847704708B5406AFFF702
:10110000FBFF08BD7047036810B55A680446900697
:1011100027D51A68910724D5A26AD2065EBFA26AB3
:1011200042F40072A2629A6802F46022B2F5602F63
:1011300010D1E26872B95A6822F020025A60A36A9C
:1011400023F48073A362A36ADB045EBFA36A43F047
:101150000103A3622046FFF7A7FF6FF01202236886
:101160001A6023685A68100630D51A6851072DD5C1
:10117000A26AD2065EBFA26A42F40052A2629A68D4
:1011800002F4E042B2F5E04F0AD05A68500516D496
:101190009A6802F46022B2F5602F10D1E26872B949
:1011A0005A6822F080025A60A36A23F48053A36233
:1011B000A36AD9055EBFA36A43F00103A362204678
:1011C00000F012FA6FF00C0223681A6023685A6864
:1011D00052060DD51B68DB070AD5A36A204643F4E7
:1011E0008033A362FFF78EFF6FF0010223681A605D
:1011F00010BD7047406A08B5836A43F040038362BC
:10120000C36A43F00403C362FFF7F3FF08BD0000A5
:10121000002373B5019390F82430012B74D001237F
:101220004D6880F82430062D02684FEA85030C686B
:1012300025D82B441F25566B053B9D4026EA050506
:1012400004FA03F32B435363092C4FEA44038D68DC
:101250002FD907262344D1681E3B9E4021EA060170
:1012600005FA03F30B43D360A4F11003012B2BD930
:101270000023002280F82420184602B070BD0C2DF7
:101280000BD82B441F25166B233B9D4026EA0505F2
:1012900004FA03F32B431363D6E72B441F25D66AC6
:1012A000413B9D4026EA050504FA03F32B43D36234
:1012B000CAE70726116923449E4021EA060105FA80
:1012C00003F30B431361CFE7104B9A4216D1936897
:1012D0001B02CDD49368102C43F400039360C7D154
:1012E0000B4B0C4A1B68B3FBF2F20A2353430193E6
:1012F000019B002BBCD0019B013BF8E7836A43F0C4
:10130000200383620123B4E70223B5E700240140F0
:101310000C00002040420F00002373B501930368C6
:1013200004469A68D20702D5002002B070BD9A68C0
:1013300042F001029A60124B124A1B68B3FBF2F3AF
:101340000193019BC3B9FFF7A9FE064623689D6878
:1013500015F00105E8D1FFF7A1FE801B0228F5D9A1
:10136000A36A84F8245043F01003A362E36A0120C7
:1013700043F00103E362D8E7019B013BE0E700BFD4
:101380000C00002040420F002DE9D8419046404B10
:10139000026804469A420F4602D03E498A4203D16F
:1013A0005B6813F4702F6ED194F82430012B6CD04D
:1013B0000123204684F82430FFF7AEFF06460028BC
:1013C0005DD1A06A216820F47060324B20F00100EA
:1013D00040F480709942A06204D12D4A536813F4FE
:1013E000702F3ED1A36A23F48013A3624B685A0581
:1013F00005D5A36A23F4405343F48053A362A36A40
:10140000206A13F4805318BFE36A3A4618BF23F0EA
:101410000603E362002384F824301F4B4C318362BF
:101420001E4BC3621E4B03636FF0020341F84C3C3A
:1014300051F8443C43F4807341F8443C434600F087
:101440006DF923689A6802F46022B2F5602F9A68F9
:101450000CBF42F4A00242F480129A603046BDE80C
:10146000D881A36A43F48013A36253685B0541BF2C
:10147000A06A20F4405040F48050A062BFE70023EF
:1014800084F82430EAE70126E8E70226E6E700BF11
:101490000024014000280140AB100008FB100008A8
:1014A000F511000838B5036804469A68D20701D4DC
:1014B000002038BD9A6822F001029A60FFF7EEFD25
:1014C000054623689B68DB07F2D5FFF7E7FD401B65
:1014D0000228F6D9A36A012043F01003A362E36A4D
:1014E00043F00103E36238BD70B50446002871D0B3
:1014F000836A23B9C36280F8243001F00BFD2046D3
:10150000FFF7D0FFA36A13F0100FA36A64D100287D
:1015100062D1E16923F48853626823F0020343F047
:1015200002030A43A168A362E368B1F5807F42EA3F
:10153000430238D0012914BF06464FF4807665690E
:10154000012D07D1002B30D1A369013B46EA433579
:1015500045F400662368B1F5807F5D6825F4694530
:1015600045EA06055D609E681D4D05EA060545EAEB
:1015700002059D6001D0012920D1216901390905A9
:10158000DD6A25F470052943D9629968154B0B4033
:101590009A4215D10023E362A36A23F0030343F0C8
:1015A0000103A36270BD0E46C9E7A36A43F020039E
:1015B000A362E36A43F00103E362CBE70021DFE7C4
:1015C000A36A23F0120343F01003A362E36A43F01B
:1015D0000103E362012070BD43F01003A362F9E749
:1015E000FDF7E1FFFE0E1FFF70470000074A0002F3
:1015F000D36800F4E06023F4E0631B041B0C43F0A9
:10160000BF6343F400330343D360704700ED00E051
:10161000174B30B5DC68C4F30224C4F10703251D61
:10162000042B28BF0423062D4FF0010598BF00248A
:1016300005FA03F303F1FF3388BF033C1940A140CF
:1016400005FA04F4013C2240002842EA01024FEA74
:101650000212AFBF00F16040064B00F00F00D2B2A3
:10166000A5BFD2B200F561401A5480F8002330BD06
:1016700000ED00E014ED00E00123420900F01F003E
:1016800003FA00F0014B43F82200704700E100E04C
:101690000138B0F1807F0AD2F021064B064A58602B
:1016A00082F823100020072298601A6070470120FA
:1016B000704700BF10E000E000ED00E010B530B36F
:1016C00014220168134B84680B44B3FBF2F39B00B4
:1016D0000364114B0A68C363436822F47F522343B7
:1016E000C46822F03002234304692343446923433E
:1016F00084692343C469234313430B6001220023FD
:1017000080F82120836380F82030184610BD012026
:1017100010BD00BFF8FFFDBF00000240F0B590F81B
:101720002040012C35D0012490F8215080F8204031
:10173000A5424FF000064FF0020428D180F8214066
:10174000046886632668076C26F001062660C66B6F
:10175000BD407560636043680568102BC36A0BBFAA
:10176000A260A160E160E2604BB1236843F00E0328
:1017700023602B68002043F001032B60F0BD236839
:1017800023F004032360236843F00A03F0E780F8A2
:1017900020600220F0BD000070B40425C66B026C0E
:1017A0003468036895402542196832D04D0730D51A
:1017B0001A6896065EBF1A6822F004021A603E4A52
:1017C000934219D01432934218D01432934217D056
:1017D0001432934217D01432934217D014329342EA
:1017E0000CBF4FF480034FF08063344A5360C36AE8
:1017F000002B5ED070BC18470423F6E74023F4E7C3
:101800004FF48063F1E74FF48043EEE74FF4802319
:10181000EBE702259540254235D08D0733D51A6870
:10182000940606D41A6822F00A021A60012280F88F
:101830002120214A934219D01432934218D01432F5
:10184000934217D01432934217D01432934217D0D8
:10185000143293420CBF4FF400134FF00073174A39
:101860005360002380F82030836AC1E70223F6E743
:101870002023F4E74FF40073F1E74FF40053EEE751
:101880004FF40033EBE708259540254211D00907B6
:101890000FD5196821F00E011960012303FA02F235
:1018A0007260836380F82130002380F82030036B5E
:1018B0009EE770BC704700BF080002400000024075
:1018C0002DE9F74F00221646654BDFF8A4E1DFF85B
:1018D000A4C14FF001080C6808FA06F808EA0404ED
:1018E000A0457FD14D68122D00F0AF8000F28880B6
:1018F000022D00F0A7807CD8002D00F08E80012DF5
:1019000000F09E804FF00F09FF2C93BF824606F136
:101910008045083DD0F800B092BFB500D0F804B0C3
:10192000AD0009FA05F82BEA080802FA05F588BFA8
:1019300000F1040A48EA0505CAF80050D1F804A0ED
:101940001AF0805F4ED0474D464FAD6926F0030830
:1019500045F00105BD61BD6908F1804805F001054C
:10196000019508F5803806F0030B019D4FEA8B0BBB
:10197000D8F8085009FA0BF925EA09093A4DA842A6
:1019800068D005F58065A84266D005F58065A84257
:1019900064D005F58065A8420CBF0325042505FA2F
:1019A0000BF545EA0905C8F808501D681AF4803F90
:1019B00014BF2543A5431D605D681AF4003F14BFA2
:1019C0002543A5435D609D681AF4801F14BF25431D
:1019D000A5439D60DD681AF4001F14BF2C4325EA5F
:1019E0000404DC600136102E7FF473AF03B0BDE851
:1019F000F08F032D22D0112D84D1CA68043281E7E3
:101A00001A4FBD4209D012D8DFF86C904D4504D072
:101A100009F580394D457FF475AF8A68C2B1012A56
:101A20000CBFC0F81080C0F8148008226AE7754522
:101A3000F3D06545F1D0DFF84490EBE7002261E791
:101A4000CA685FE7CA6808325CE7CA680C3259E7BF
:101A5000042257E70025A2E70125A0E702259EE71B
:101A60000004014000100240000801400000211065
:101A70000000311000003210000011100000221090
:101A80008368194214BF01200020704708B5044B39
:101A90005969014202D0586101F03AF808BD00BF0F
:101AA0000004014003682DE9F341DB07054610D42B
:101AB0002B689F075ED42B68190700F195802B686F
:101AC0005A0700F1BF80EA69002A40F02D8100200A
:101AD00014E0904C636803F00C03042B07D0636898
:101AE00003F00C03082B0CD16368DE0309D52368CF
:101AF0009C03DDD56B68002BDAD1012002B0BDE874
:101B0000F0816B68B3F5803F10D1236843F48033D4
:101B10002360FFF7C3FA064623689803C8D4FFF78B
:101B2000BDFA801B6428F7D90320E7E79BB9236837
:101B300023F480332360236823F480232360FFF79A
:101B4000ADFA064623689903B2D5FFF7A7FA801BC2
:101B50006428F7D9E8E7B3F5A02F236803D143F44D
:101B600080232360D1E723F480332360236823F4A8
:101B70008023CDE7674C636813F00C0F07D06368D0
:101B800003F00C03082B10D16368DA030DD423682B
:101B90009B0702D52B69012BAFD123686A6923F01B
:101BA000F80343EAC203236085E72A695A4B6AB106
:101BB00001221A60FFF772FA064623689F07ECD4E9
:101BC000FFF76CFA801B0228F7D9ADE71A60FFF720
:101BD00065FA0646236898077FF56DAFFFF75EFA52
:101BE000801B0228F6D99FE7AA694A4C4B4BDAB111
:101BF00001221A60FFF752FA0646636A9B070DD569
:101C00004FF4FA52464B1B68B3FBF2F3019300BF4B
:101C1000019B5A1E0192002BF9D150E7FFF73EFAC3
:101C2000801B0228E9D97FE71A60FFF737FA0646DA
:101C3000636A9F077FF543AFFFF730FA801B0228E6
:101C4000F6D971E7334CE369D80024D40127E3695E
:101C500043F08053E361E36903F080530093009BFA
:101C6000304E3368D90518D5EB68012B26D1236A8D
:101C700043F001032362FFF711FA41F288368046F0
:101C8000236A9B073FD5002F3FF41DAFE36923F084
:101C90008053E36117E70027E2E7336843F480737A
:101CA0003360FFF7FBF980463368DA05DCD4FFF7D1
:101CB000F5F9A0EB08006428F6D935E7ABB9236A3B
:101CC00041F2883823F001032362236A23F00403DE
:101CD0002362FFF7E3F90646236A9807D3D5FFF797
:101CE000DDF9801B4045F7D91EE7052B236A03D198
:101CF00043F004032362BAE723F001032362236A5B
:101D000023F00403B6E7FFF7C9F9A0EB0800B042DF
:101D1000B6D909E700100240000042428004424266
:101D20000C00002000700040224C636803F00C039C
:101D3000082B3FF4E2AE00231F4E022A33602BD162
:101D4000FFF7ACF90746236899011FD42B6AB3F556
:101D5000803F05D16268A96822F400320A436260BC
:101D6000696A62680B4322F47412134363600123AF
:101D70003360FFF793F9054623689A013FF5A7AE54
:101D8000FFF78CF9401B0228F6D9CDE6FFF786F95C
:101D9000C01B0228D7D9C7E6FFF780F9054623689C
:101DA0009B017FF594AEFFF779F9401B0228F6D925
:101DB000BAE600BF001002406000424230B5194B45
:101DC00087B002AC03F11005224618685968083341
:101DD00003C2AB421446F7D101238DF8043002232D
:101DE00011498DF805304B6803F00C02082A17D111
:101DF000C3F3834206A80244DB0312F8102C0CD56F
:101E00004B680A48C3F34043504306AA134413F8EF
:101E1000143CB0FBF3F007B030BD05485043FAE77F
:101E20000248F8E7E83600080010024000127A0085
:101E300000093D00544A2DE9F0411368054603F0BE
:101E400007038B420E462AD329688C0734D4CA076D
:101E500047D44D4A136803F007039E42C0F08280C6
:101E60002A684A4C12F0040F40F08780130706D509
:101E700063682A6923F4605343EAC2036360FFF78F
:101E80009DFF6368424AC3F30313D35CD840414BC0
:101E900018600020FFF7C0F80020BDE8F08113684B
:101EA00023F007030B431360136803F00703994201
:101EB000CAD00120BDE8F081344B11F0040F1EBFE1
:101EC0005A6842F4E0625A60080742BF5A6842F416
:101ED00060525A605A68A86822F0F00202435A60C1
:101EE000B5E76A68294C012A23681CD113F4003F26
:101EF000DFD0636841F2883823F003031343636043
:101F0000FFF7CCF86B680746012B14D1636803F028
:101F10000C03042B9DD0FFF7C1F8C01B4045F5D939
:101F20000320BDE8F081022A02D113F0007FDFE731
:101F300013F0020FDCE7022B0FD1636803F00C03F0
:101F4000082B86D0FFF7AAF8C01B4045F5D9E7E774
:101F5000FFF7A4F8C01B4045E2D8636813F00C0FEC
:101F6000F6D176E7136823F0070333431360136851
:101F700003F007039E429CD172E76368E96823F48B
:101F8000E0630B43636071E70020024000100240F1
:101F9000F83600080C00002003682DE9F341D9074A
:101FA000054620D5354CE369DA0032D40127E369D0
:101FB00043F08053E361E36903F080530193019B95
:101FC0002F4E3368DB0526D5236A13F4407336D1D0
:101FD000236A6A6823F44073134323621FB1E369E1
:101FE00023F08053E3612868830706D5234AA96854
:101FF000536823F440430B43536010F010001BD090
:102000001E4AE9685368002023F480030B435360A1
:1020100012E00027D4E7336843F480733360FFF79E
:102020003DF880463368D805CED4FFF737F8A0EBEB
:1020300008006428F6D9032002B0BDE8F0816A6880
:1020400002F440729342C3D001200E4A236A10600A
:10205000002023F4407110602162D907B8D5FFF742
:102060001DF841F288380646236A9A07B0D4FFF774
:1020700015F8801B4045F7D9DDE700BF001002408E
:102080000070004040044242036A70B523F001032F
:102090000362036A446882690D6822F073022A436E
:1020A0008D6823F002032B430A4DA8420BD1CD6863
:1020B00023F008032B438E694D6924F440743543A3
:1020C00023F004032C43446082614A684263036244
:1020D00070BD00BF002C0140036A70B523F480730B
:1020E0000362036A4468C2690D6822F073022A43DE
:1020F0008D6823F4007343EA05230B4DA8420DD1EC
:10210000CD6823F4006343EA05238E694D6924F406
:102110004054354323F4806344EA05144460C261AB
:102120004A68C263036270BD002C0140036A30B587
:1021300023F480530362036A4468C2690D6822F481
:10214000E64242EA05228D6823F4005343EA053350
:10215000064DA84202BF4D6924F4804444EA851428
:102160004460C2614A680264036230BD002C0140D1
:102170000223026880F83D30136843F001031360C6
:10218000012380F83D30002070477047704790F879
:102190003C3070B5012B4FF002031CD0012280F8B7
:1021A0003D30036880F83C209A6822F47F4222F098
:1021B00077029A600A68402A79D019D8102A00F06C
:1021C00093800AD8002A00F08980012380F83D30EE
:1021D000002380F83C30184670BD202A00F08A8029
:1021E000302AF2D19A6822F0700242F0370236E0CB
:1021F000702A36D01BD8502A42D0602AE5D11C6AFA
:102200004D6824F01004CE681C6299691A6A21F4A2
:10221000704122F0A00242EA051241EA06319961BA
:102220001A629A6822F0700242F0670217E0B2F573
:10223000805F11D0B2F5005FC7D18A684D689C6895
:10224000C9682A4324F47F4442EA012222439A6067
:102250009A6842F4804202E09A6822F007029A608B
:10226000B3E78A684D689C68C9682A4324F47F44B0
:1022700042EA012222439A609A6842F07702EEE72E
:102280004C68CE68196A1D6A21F00A0125F0010523
:102290001D629A69214322F0F00242EA06129A6115
:1022A00019629A6822F0700242F05702D7E74C6830
:1022B000CE68196A1D6A21F00A0125F001051D6228
:1022C0009A69214322F0F00242EA06129A611962E9
:1022D0009A6822F0700242F04702C0E79A6822F042
:1022E000700242F00702BAE79A6822F0700242F0E8
:1022F0001702B4E79A6822F0700242F02702AEE7B4
:102300007047704770477047036810B51A690446F4
:1023100091070ED5DA6892070BD56FF002021A61A9
:1023200001229B6902779B0777D000F0C9FA00234E
:10233000237723681A69500710D5DA6851070DD53D
:102340006FF004021A6102229B69227713F4407F26
:10235000204668D000F0B4FA0023237723681A6976
:1023600012070FD5DA6810070CD56FF008021A6152
:102370000422DB692277990720465AD000F0A0FAA0
:102380000023237723681A69D20610D5DA68D006AD
:102390000DD56FF010021A610822DB69227713F461
:1023A000407F20464BD000F08BFA00232377236830
:1023B0001A69D10708D5DA68D20705D56FF001028E
:1023C00020461A61FFF79CFF23681A69100608D59A
:1023D000DA68110605D56FF0800220461A6100F018
:1023E0006CFA23681A69520608D5DA68500605D5D2
:1023F0006FF0400220461A61FFF785FF23681A69D3
:10240000910622D5DA6892061FD56FF02002204689
:10241000BDE810401A6100F04FBAFFF772FF204686
:10242000FFF770FF83E7FFF76CFF2046FFF76AFFB7
:1024300092E7FFF766FF2046FFF764FFA0E7FFF78C
:1024400060FF2046FFF75EFFAFE710BD1A4A036842
:1024500090420AD0B0F1804F07D0A2F5943290425A
:1024600003D002F58062904215D14A6823F07003D0
:102470001343114A90420AD0B0F1804F07D0A2F521
:102480009432904203D002F58062904203D1CA6830
:1024900023F4407313434A6923F08003134303601A
:1024A0008B68C3620B688362034B984204BF0B695D
:1024B0000363012343617047002C014010B50446BB
:1024C000A0B190F83D3003F0FF021BB980F83C202A
:1024D00000F074FD0223206884F83D30211DFFF7D1
:1024E000B5FF0123002084F83D3010BD012010BD50
:1024F00010B50446A0B190F83D3003F0FF021BB9BF
:1025000080F83C20FFF741FE0223206884F83D302C
:10251000211DFFF79BFF0123002084F83D3010BDF3
:10252000012010BD10B50446A0B190F83D3003F075
:10253000FF021BB980F83C20FFF728FE0223206829
:1025400084F83D30211DFFF781FF0123002084F82E
:102550003D3010BD012010BD036A70B523F010039B
:102560000362036A446882690D6822F4E64242EA23
:1025700005228D6823F0200343EA05130B4DA84282
:102580000DD1CD6823F0800343EA05138E694D69B0
:1025900024F44064354323F0400344EA8504446056
:1025A00082614A688263036270BD00BF002C0140F3
:1025B00038B590F83C300446012B4FF0020025D08E
:1025C000012384F83D0084F83C300C2A18D8DFE859
:1025D00002F0071717171E1717172F1717174000A6
:1025E0002068FFF751FD236809699A6942F00802E3
:1025F0009A619A6922F004029A619A690A439A617F
:102600000123002084F83D3084F83C0038BD206868
:10261000FFF7A2FF236809699A6942F400629A6190
:102620009A6922F480629A619A6942EA0122E6E795
:102630002068FFF751FD23680969DA6942F0080252
:10264000DA61DA6922F00402DA61DA690A43DA61EE
:10265000D6E72068FFF76AFD23680969DA6942F462
:102660000062DA61DA6922F48062DA61DA6942EAE8
:102670000122ECE770B5046A124E24F001040462F2
:10268000B0428469056A0AD0B0F1804F07D0A6F540
:102690009436B04203D006F58066B0420FD124F0E4
:1026A000030422431B0122F0F002DBB225F00A05ED
:1026B00001F00A011A4329438261016270BD44F0AE
:1026C0000102EFE7002C0140F8B590F83C300446D9
:1026D000012B0D464FF0020019D0012384F83D0074
:1026E00084F83C30A2B9CB68206806C9FFF7C2FF66
:1026F0002368A9689A6922F00C029A619A690A43D0
:102700009A610123002084F83D3084F83C00F8BD34
:10271000042A8E68236882C9E8681FD11A6A0003F8
:1027200022F010021A629A691D6A22F4407242EA8B
:10273000072280B222F470420901024301F0A00195
:1027400025F0A00001439A6119629A6922F440625F
:102750009A619A6942EA06269E61D2E7082A1A6AB5
:102760001CD122F480721A62DA69000122F003029D
:102770001D6A3A43C0B222F0F0020902024301F49A
:10278000007125F400700143DA611962DA6922F000
:102790000C02DA61DA691643DE61B2E722F4805294
:1027A0001A62DA69000322F440721D6A42EA0722C3
:1027B00022F4704280B20903104301F4005125F461
:1027C00000521143D8611962DA6922F44062DA6179
:1027D000DA6942EA0626DFE710B50124036A8C4075
:1027E00023EA04030362036A8A401A43026210BDAB
:1027F00010B5044601220068FFF7EEFF2368064A81
:102800000020934202BF5A6C42F400425A641A6894
:1028100042F001021A6010BD002C014010B50446C0
:102820000C290DD8DFE801F0070C0C0C170C0C0C70
:102830001C0C0C0C21000268D36843F00203D36027
:1028400020680122FFF7C8FF22680020136843F0C8
:102850000103136010BD0268D36843F00403EEE780
:102860000268D36843F00803E9E70268D36843F0DD
:102870001003E4E790F83C3010B5012B4FF0020351
:1028800018D080F83D3003680C685A68496822F017
:1028900070025A605A6822435A609A6822F0800295
:1028A0009A609A680A439A60012380F83D300023B9
:1028B00080F83C30184610BD70477047000000009B
:1028C00010B50468B4F1804F40F0E880037F012B1D
:1028D00036D1794A117811B96162137010BD606AFE
:1028E000FEF7CCF9754B1860FDF796FD02460B46D6
:1028F0006BA1D1E90001FDF70DFFFEF7B9F8704BB0
:102900007049186000236362FEF7C4FA6E4B1860CA
:10291000FDF782FD64A3D3E90023FDF7D1FD64A395
:10292000D3E90023FDF7CCFD684B0022FDF7C8FD7D
:10293000FEF79EF86349FEF7ADFA654B186010BDCF
:10294000022B37D15C4B5A781AB9626201225A7055
:1029500010BD606AFEF792F9584B5860FDF75CFDB8
:1029600002460B464EA1D1E90001FDF7D3FEFEF76A
:102970007FF8534B5349586000236362FEF78AFA8D
:10298000514B5860FDF748FD47A3D3E90023FDF7FD
:1029900097FD47A3D3E90023FDF792FD4B4B00229F
:1029A000FDF78EFDFEF764F84649FEF773FA484BD3
:1029B000586010BD042B6FD13F4B9A781AB96262F0
:1029C00001229A7010BD606AFEF758F93B4B98607F
:1029D000FDF722FD02460B4631A1D1E90001FDF7CA
:1029E00099FEFEF745F8364B36499860002363623E
:1029F000FEF750FA344B9860FDF70EFD2AA3D3E999
:102A00000023FDF75DFD2AA3D3E90023FDF758FD60
:102A10002E4B0022FDF754FDFEF72AF82949FEF758
:102A200039FA2B4B986010BD234BDA781AB96262E1
:102A30000122DA7010BD606AFEF720F91F4BD860E2
:102A4000FDF7EAFC02460B4615A1D1E90001FDF7AE
:102A500061FEFEF70DF81A4B1A49D8600023636235
:102A6000FEF718FA184BD860FDF7D6FC0EA3D3E991
:102A70000023FDF725FD0EA3D3E90023FDF720FD7C
:102A8000124B0022FDF71CFDFDF7F2FF0D49FEF78A
:102A900001FA0F4BD86010BD082BC5D010BD00BF88
:102AA000D9CEF7535C0200411F85EB51B81E194087
:102AB000333333333333C33FC0000020E4000020FE
:102AC000C40000200000A040D400002000003240DC
:102AD000FC00002010B50B4C61682068FEF71EF862
:102AE000A168FEF71BF8E168FEF718F84FF07A517D
:102AF000FEF71CF9044B1860FEF768FA034B1860E8
:102B000010BD00BFFC0000200C010020BC00002014
:102B1000B0F5805F08B510D100F180404FF400613E
:102B200000F57840FEF7ACFF074B01281A880CBF70
:102B3000013202F1FF321A8008BDB0F5806FFBD17F
:102B40005A22014BF7E700BF08000020282210B5E9
:102B500094B00DEB0200002100F05CFB1422002178
:102B60000DEB020000F056FB0021102201A800F03E
:102B700051FB4FF48033022401220B9312934FF444
:102B8000E0130AA80A920E9213931194FEF78AFF9B
:102B90000F234FF4806205930023214605A8079375
:102BA000089209930694FFF745F94FF4004301A8F2
:102BB00001940393FFF7F0F914B010BD000000007A
:102BC0002DE98048B64D95B0FEF74AFAFFF7BEFFF3
:102BD000102200210DA800F01DFBAB69012643F077
:102BE0002003AB61AB690DA903F020030493049BA0
:102BF000AB69AC4843F00403AB61AB69002403F05C
:102C000004030593059BAB694FF4805A43F0080316
:102C1000AB61AB690F9603F008030693069B4FF474
:102C2000A0530D93A04BA14F0E93FEF749FE4FF416
:102C300000630DA99B480D930F960E94FEF740FE7E
:102C4000224621462820FEF7E3FC2820FEF714FD4B
:102C50006B69224633436B616B69214633400393B2
:102C60000B20039BFEF7D4FC0B20FEF705FD102282
:102C7000214609A800F0CEFA214610220DA807949B
:102C8000089400F0C7FA4FF080424FF40973884D62
:102C90004FF0030885E80C004FF6FF732846EB6001
:102CA000AC602C61AC61FFF709FC09A92846CDF89E
:102CB00024A0FFF76CFA2846FFF734FC07A9284642
:102CC00007940894FFF7D6FD0F22022310920DA956
:102CD000224628460D9301930E960F94FFF7F4FCBD
:102CE00004220DA92846FFF7EFFC08220DA928466B
:102CF000FFF7EAFC0DA90C222846FFF7E5FC6D4A18
:102D000038463A604FF48072BA604FF46022FE6039
:102D1000FA61C7F810804FF004097C617C600D9463
:102D20000E940F94FEF7E0FB0E9606264FF0050B6F
:102D30000DA93846CDF834900F96FEF769FA019B3D
:102D40000DA938460E93CDF834B0FEF761FA0DA9FF
:102D500038460D96CDF83880FEF75AFA10222146F3
:102D600009A800F057FA1C2221460DA8524E0794DC
:102D7000089400F04FFA514B304686E808084EF2AE
:102D80001B33B460F3603461B461FFF797FB09A9AA
:102D90003046CDF824A0FFF7FAF93046FFF7A8FB3C
:102DA00007A9304607940894FFF764FD60230D934C
:102DB0004FF4FA7322460DA930460E930F941194E6
:102DC000FFF7F6FB304600F061F92846FFF7D0F92F
:102DD00021462846FFF722FD49462846FFF71EFDFB
:102DE00008212846FFF71AFD0C212846FFF716FD9B
:102DF00021463046FFF7FCFC42460FF28C09D9E928
:102E00000089384622A7D7E900672D49FEF7BCFAAA
:102E1000DFF8ACA0FFF75EFEBAF80000FDF7EAFAB3
:102E200042464B46FDF79AF91BA3D3E90023FDF771
:102E300047FB244D244CC5E90001FDF7F1FD20605E
:102E4000BAF802000138FDF7D5FA00F0EBF9324686
:102E50003B46FDF735FBC5E90201FDF7E1FD60608A
:102E6000BAF804000138FDF7C5FA00F0DBF9324684
:102E70003B46FDF725FBC5E90401FDF7D1FDA06048
:102E8000C6E700BFAFF300803D0AD7A370C560401E
:102E9000ABAAAAAAAAAA1A407AA0A68994A68A3F8F
:102EA00000100240000801400000111054010020F1
:102EB000C801002000240140140100200008004047
:102EC000F400002098000020B000002070470000AF
:102ED0000E4B82B09A6942F001029A619A6902F03F
:102EE00001020092009ADA6942F08052DA61DB69ED
:102EF000074A03F080530193019B536823F0E0637A
:102F000043F00073536002B0704700BF00100240EE
:102F10000000014030B5054687B01022002102A80C
:102F200000F078F92A68214B9A423CD103F56C43B2
:102F30009A691F4842F400729A619A6902A902F4E0
:102F400000720092009A9A691A4C42F004029A6147
:102F50009B6903F004030193019B702302930323F5
:102F60000393FEF7ADFC8022E2604FF48072226191
:102F70004FF48062104B62612360202200232046C0
:102F80006360A360A261E361FEF798FB08B1FFF7FD
:102F90009DFF00222C62122011466562FEF738FB6D
:102FA0001220FEF769FB07B030BD00BF00240140CE
:102FB000000801408401002008000240102230B5C2
:102FC000044689B000210DEB020000F023F92368CC
:102FD000B3F1804F41D103F50433DA69012542F0A2
:102FE0000102DA61DA6904A902F001020092009A92
:102FF0009A69214842F004029A619A69002402F019
:1030000004020192019A9A6942F008029A619B694E
:10301000069503F008030293029B03230493FEF733
:103020004FFC4FF4406304A914480493059406959B
:10303000FEF746FC124A1C205368214623F44073D5
:1030400043F0E06343F4007353602246FEF7E0FA76
:103050001C20FEF711FB09B030BD0A4A9342FAD199
:10306000094BDA6942F00402DA61DB6903F0040318
:103070000393039BEFE700BF00080140000C0140F1
:1030800000000140000800400010024010B5044656
:1030900086B01022002102A800F0BCF822680C4B78
:1030A0009A4213D103F502339A6902A942F0080249
:1030B0009A619B69074803F008030193019B402331
:1030C0000293022303930593FEF7FAFB06B010BDAB
:1030D00000080040000C01407047FEE7FEE7FEE7F5
:1030E000FEE7704770477047FDF7CCBF0148FEF719
:1030F00053BB00BF840100200148FEF704B800BFA5
:10310000540100200148FFF7FFB800BFC8010020AC
:1031100008B54FF48060FEF7B9FCBDE808404FF4F5
:103120008050FEF7B3BC00000F4B1A6842F001025A
:103130001A6059680D4A0A405A601A6822F084726F
:1031400022F480321A601A6822F480221A605A68C7
:1031500022F4FE025A604FF41F029A604FF00062A0
:10316000034B9A60704700BF001002400000FFF858
:1031700000ED00E0002103E00B4B5B5843500431AD
:103180000A480B4B42189A42F6D30A4A02E000233F
:1031900042F8043B084B9A42F9D3FFF7C5FF00F011
:1031A00015F8FFF70DFD70471437000800000020E8
:1031B000780000207800002008020020FEE70000D0
:1031C000014B1868704700BF1000002070B5002543
:1031D0000C4E0D4CA41BA410A54209D100F078FAA6
:1031E00000250A4E0A4CA41BA410A54205D170BDAF
:1031F00056F8253098470135EEE756F825309847C0
:103200000135F2E70C3700080C3700080C370008CE
:103210001037000803460244934200D1704703F878
:10322000011BF9E72DE970438AB004460D4600F012
:1032300073F8344B804693F900608946731C5BD069
:1032400022462B4620462946FDF7D4FB002853D1C1
:103250000022002320462946FDF7C2FB00284BD15F
:10326000294B08900193CDE90245CDE90445A6B963
:103270004FF06042254B2046CDE906232946002227
:103280000023FDF785FB40BB0123022E009319D1DB
:10329000FFF796FF2123036019E000221C4B204614
:1032A000CDE90623294600220023FDF771FB002803
:1032B000EAD002239E42009311D1FFF781FF22231F
:1032C000036011E0684600F0FBF90028E0D01148E7
:1032D00000F0F8F9CDE9060106E002230093684604
:1032E00000F0EEF90028E8D0089B1BB1FFF768FF5B
:1032F000089B0360DDE90689404649460AB0BDE8FF
:10330000708300BF7400002008370008FFFFEFC77C
:103310000000F0FF0B3700082DE9F04FB1F5801FDA
:1033200087B002460B4604460D4624DA21F00046DB
:10333000344308D1002200230020C949FDF7EAF9EF
:1033400007B0BDE8F08F002904DAFCF705FF002282
:103350000023F3E70022C34BFDF7B2F86FF0350608
:1033600002460B460D46C0498D4206DD1046194601
:10337000FCF7F4FEE4E70026F5E72C15C5F313058A
:1033800005F51521A4F2FF3401F66471264401F419
:10339000801484F07F5181F4401141EA0503104606
:1033A00019460022B14BFCF7D7FEAB1CC3F3130345
:1033B000022B06EB145482468B464FF000025BDC76
:1033C0000023FDF7E5FAD0B1002C00F06E81204615
:1033D000FDF710F88EA3D3E9002306460F46FDF74C
:1033E0006FF88DA3D3E9002304460D4630463946D5
:1033F000FDF766F802460B4620462946B8E788A343
:10340000D3E9002350465946FDF75AF802460B46C9
:1034100000209749FCF7A0FE524606460F465B4641
:1034200050465946FDF74CF802460B4630463946A1
:10343000FDF746F806460F4634B902460B4650469D
:103440005946FCF789FE7BE72046FCF7D3FF70A3C3
:10345000D3E9002380468946FDF732F86EA3D3E90D
:10346000002304460D4640464946FDF729F802462A
:103470000B4630463946B2E04FF08043FCF76EFE13
:1034800002460B4650465946FDF744F9CDE9000186
:103490002046FCF7AFFFDDE90023CDE9020110462D
:1034A0001946FDF70DF802460B46CDE90401FDF77C
:1034B00007F85DA3D3E9002306460F46FDF700F8A1
:1034C0005BA3D3E90023FCF749FE32463B46FCF7F9
:1034D000F7FF59A3D3E90023FCF740FE32463B46F1
:1034E000FCF7EEFF56A3D3E90023FCF737FEDDE936
:1034F0000423FCF7E5FF54A3D3E90023CDE904013D
:1035000030463946FCF7DCFF51A3D3E90023FCF732
:1035100025FE32463B46FCF7D3FF4FA3D3E90023F9
:10352000FCF71CFE32463B46FCF7CAFF02460B4640
:10353000DDE90401FCF712FEA5F5C228C5F5D72583
:10354000A8F27A48513545EA0805002D06460F468F
:1035500050DD0022464B50465946FCF7B1FF52461B
:103560005B46FCF7ADFF8046894694B902460B46A0
:1035700030463946FCF7F2FDDDE90023FCF7A0FFF9
:1035800002460B4640464946FCF7E6FD02460B461E
:1035900055E71FA3D3E90023DDE90201FCF790FF03
:1035A00042464B4604460D4630463946FCF7D6FDAA
:1035B000DDE90023FCF784FF17A3D3E900230646C7
:1035C0000F46DDE90201FCF77BFF02460B46304661
:1035D0003946FCF7C3FD02460B4640464946FCF718
:1035E000BBFD52465B46FCF7B7FD02460B46204644
:1035F000294626E7002C3DD102460B465046594647
:10360000FCF7AAFDDDE90023FCF75AFFBEE700BF87
:103610000000E0FE422EE63F763C7935EF39EA3D88
:10362000555555555555D53F44523EDF12F1C23FD1
:10363000DE03CB966446C73F599322942449D23F78
:10364000935555555555E53F9FC678D0099AC33FC8
:10365000AF788E1DC571CC3F04FA97999999D93FDF
:10366000000050C300005043FFFFEF7F0000F03F19
:103670000000E03F0EA3D3E90023DDE90201FCF7DF
:103680001FFF32463B4604460D4650465946FCF75E
:1036900063FDDDE90023FCF713FF07A3D3E9002353
:1036A00006460F46DDE90201DFE60020002147E67D
:1036B0000000E0FE422EE63F763C7935EF39EA3DE8
:1036C0000020704700200149704700BF0000F87FCC
:1036D000F8B500BFF8BC08BC9E467047F8B500BFFF
:0836E000F8BC08BC9E467047CF
:1036E80002030405060708090A0B0C0D0E0F10103B
:1036F800000000000000000001020304060708099A
:043708006C6F67007B
:04370C00350100087B
:04371000110100089B
:1037140001000000100000005A00000000A24A044A
:103724001400002000000000000000000000000061
:103734000000000000000000000000000000000085
:103744000000000000000000000000000000000075
:103754000000000000000000000000000000000065
:103764000000000000000000000000000000000055
:103774000000000000000000000000000000000045
:0837840000000000010000003C
:040000050800317549
:00000001FF
